{
  "contractName": "Pokemon",
  "abi": [
    {
      "anonymous": false,
      "inputs": [
        {
          "indexed": false,
          "internalType": "uint256",
          "name": "id",
          "type": "uint256"
        },
        {
          "indexed": false,
          "internalType": "string",
          "name": "name",
          "type": "string"
        },
        {
          "indexed": false,
          "internalType": "uint256",
          "name": "hp",
          "type": "uint256"
        },
        {
          "indexed": false,
          "internalType": "uint256",
          "name": "attack",
          "type": "uint256"
        },
        {
          "indexed": false,
          "internalType": "string",
          "name": "imageUrl",
          "type": "string"
        }
      ],
      "name": "NewPokemon",
      "type": "event"
    },
    {
      "constant": true,
      "inputs": [
        {
          "internalType": "uint256",
          "name": "",
          "type": "uint256"
        }
      ],
      "name": "pokemonToOwner",
      "outputs": [
        {
          "internalType": "address",
          "name": "",
          "type": "address"
        }
      ],
      "payable": false,
      "stateMutability": "view",
      "type": "function"
    },
    {
      "constant": true,
      "inputs": [
        {
          "internalType": "uint256",
          "name": "",
          "type": "uint256"
        }
      ],
      "name": "pokemons",
      "outputs": [
        {
          "internalType": "string",
          "name": "name",
          "type": "string"
        },
        {
          "internalType": "uint256",
          "name": "hp",
          "type": "uint256"
        },
        {
          "internalType": "uint256",
          "name": "attack",
          "type": "uint256"
        },
        {
          "internalType": "string",
          "name": "imageUrl",
          "type": "string"
        }
      ],
      "payable": false,
      "stateMutability": "view",
      "type": "function"
    },
    {
      "constant": false,
      "inputs": [
        {
          "internalType": "string",
          "name": "_name",
          "type": "string"
        },
        {
          "internalType": "uint256",
          "name": "_hp",
          "type": "uint256"
        },
        {
          "internalType": "uint256",
          "name": "_attack",
          "type": "uint256"
        },
        {
          "internalType": "string",
          "name": "_imageUrl",
          "type": "string"
        }
      ],
      "name": "createPokemon",
      "outputs": [],
      "payable": false,
      "stateMutability": "nonpayable",
      "type": "function"
    },
    {
      "constant": true,
      "inputs": [
        {
          "internalType": "address",
          "name": "_owner",
          "type": "address"
        }
      ],
      "name": "getPokemonsByOwner",
      "outputs": [
        {
          "internalType": "uint256[]",
          "name": "",
          "type": "uint256[]"
        }
      ],
      "payable": false,
      "stateMutability": "view",
      "type": "function"
    }
  ],
  "bytecode": "0x608060405234801561001057600080fd5b50610953806100206000396000f3fe608060405234801561001057600080fd5b506004361061004c5760003560e01c80632f7467b31461005157806335beeb27146100bf5780638583107914610158578063c3fa9bc114610279575b600080fd5b61007d6004803603602081101561006757600080fd5b81019080803590602001909291905050506103df565b604051808273ffffffffffffffffffffffffffffffffffffffff1673ffffffffffffffffffffffffffffffffffffffff16815260200191505060405180910390f35b610101600480360360208110156100d557600080fd5b81019080803573ffffffffffffffffffffffffffffffffffffffff169060200190929190505050610412565b6040518080602001828103825283818151815260200191508051906020019060200280838360005b83811015610144578082015181840152602081019050610129565b505050509050019250505060405180910390f35b6101846004803603602081101561016e57600080fd5b810190808035906020019092919050505061053f565b604051808060200185815260200184815260200180602001838103835287818151815260200191508051906020019080838360005b838110156101d45780820151818401526020810190506101b9565b50505050905090810190601f1680156102015780820380516001836020036101000a031916815260200191505b50838103825284818151815260200191508051906020019080838360005b8381101561023a57808201518184015260208101905061021f565b50505050905090810190601f1680156102675780820380516001836020036101000a031916815260200191505b50965050505050505060405180910390f35b6103dd6004803603608081101561028f57600080fd5b81019080803590602001906401000000008111156102ac57600080fd5b8201836020820111156102be57600080fd5b803590602001918460018302840111640100000000831117156102e057600080fd5b91908080601f016020809104026020016040519081016040528093929190818152602001838380828437600081840152601f19601f82011690508083019250505050505050919291929080359060200190929190803590602001909291908035906020019064010000000081111561035757600080fd5b82018360208201111561036957600080fd5b8035906020019184600183028401116401000000008311171561038b57600080fd5b91908080601f016020809104026020016040519081016040528093929190818152602001838380828437600081840152601f19601f8201169050808301925050505050505091929192905050506106ac565b005b60016020528060005260406000206000915054906101000a900473ffffffffffffffffffffffffffffffffffffffff1681565b606080600260008473ffffffffffffffffffffffffffffffffffffffff1673ffffffffffffffffffffffffffffffffffffffff168152602001908152602001600020546040519080825280602002602001820160405280156104835781602001602082028038833980820191505090505b509050600080905060008090505b600080549050811015610534578473ffffffffffffffffffffffffffffffffffffffff166001600083815260200190815260200160002060009054906101000a900473ffffffffffffffffffffffffffffffffffffffff1673ffffffffffffffffffffffffffffffffffffffff161415610527578083838151811061051257fe5b60200260200101818152505081806001019250505b8080600101915050610491565b508192505050919050565b6000818154811061054c57fe5b9060005260206000209060040201600091509050806000018054600181600116156101000203166002900480601f0160208091040260200160405190810160405280929190818152602001828054600181600116156101000203166002900480156105f85780601f106105cd576101008083540402835291602001916105f8565b820191906000526020600020905b8154815290600101906020018083116105db57829003601f168201915b505050505090806001015490806002015490806003018054600181600116156101000203166002900480601f0160208091040260200160405190810160405280929190818152602001828054600181600116156101000203166002900480156106a25780601f10610677576101008083540402835291602001916106a2565b820191906000526020600020905b81548152906001019060200180831161068557829003601f168201915b5050505050905084565b60006001600060405180608001604052808881526020018781526020018681526020018581525090806001815401808255809150509060018203906000526020600020906004020160009091929091909150600082015181600001908051906020019061071a929190610879565b506020820151816001015560408201518160020155606082015181600301908051906020019061074b929190610879565b5050500390507f256aa9216621c83023b4dee83e0f11f51f5c6f75fbbf9ab6209d0c89a137b1d98186868686604051808681526020018060200185815260200184815260200180602001838103835287818151815260200191508051906020019080838360005b838110156107cd5780820151818401526020810190506107b2565b50505050905090810190601f1680156107fa5780820380516001836020036101000a031916815260200191505b50838103825284818151815260200191508051906020019080838360005b83811015610833578082015181840152602081019050610818565b50505050905090810190601f1680156108605780820380516001836020036101000a031916815260200191505b5097505050505050505060405180910390a15050505050565b828054600181600116156101000203166002900490600052602060002090601f016020900481019282601f106108ba57805160ff19168380011785556108e8565b828001600101855582156108e8579182015b828111156108e75782518255916020019190600101906108cc565b5b5090506108f591906108f9565b5090565b61091b91905b808211156109175760008160009055506001016108ff565b5090565b9056fea265627a7a7231582060510239329416bb263ad9005502ced4c83ba7a1fc0d4466ed399d0edf51230164736f6c63430005100032",
  "source": "// SPDX-License-Identifier: MIT\r\npragma solidity >=0.4.21 <0.7.0;\r\n\r\ncontract Pokemon {\r\n    event NewPokemon(\r\n        uint256 id,\r\n        string name,\r\n        uint256 hp,\r\n        uint256 attack,\r\n        string imageUrl\r\n    );\r\n\r\n    struct Pokemon {\r\n        string name;\r\n        uint256 hp;\r\n        uint256 attack;\r\n        string imageUrl;\r\n    }\r\n\r\n    Pokemon[] public pokemons;\r\n\r\n    mapping(uint256 => address) public pokemonToOwner;\r\n    mapping(address => uint256) ownerPokemonCount;\r\n\r\n    function createPokemon(\r\n        string memory _name,\r\n        uint256 _hp,\r\n        uint256 _attack,\r\n        string memory _imageUrl\r\n    ) public {\r\n        uint256 id = pokemons.push(Pokemon(_name, _hp, _attack, _imageUrl)) - 1;\r\n        emit NewPokemon(id, _name, _hp, _attack, _imageUrl);\r\n    }\r\n\r\n    function getPokemonsByOwner(address _owner)\r\n        external\r\n        view\r\n        returns (uint256[] memory)\r\n    {\r\n        uint256[] memory result = new uint256[](ownerPokemonCount[_owner]);\r\n        uint256 counter = 0;\r\n        for (uint256 i = 0; i < pokemons.length; i++) {\r\n            if (pokemonToOwner[i] == _owner) {\r\n                result[counter] = i;\r\n                counter++;\r\n            }\r\n        }\r\n        return result;\r\n    }\r\n}\r\n",
  "sourcePath": "G:/ReactJS/BlockChain/1/contracts/Pokemon.sol",
  "compiler": {
    "name": "solc",
    "version": "0.5.16+commit.9c3226ce.Emscripten.clang"
  },
  "schemaVersion": "3.3.4",
  "updatedAt": "2021-03-01T16:58:30.427Z",
  "devdoc": {
    "methods": {}
  },
  "userdoc": {
    "methods": {}
  }
}